{
	"soliditymeliproject/contracts/vaultori.sol": {
		"Vault": {
			"abi": [
				{
					"inputs": [],
					"stateMutability": "nonpayable",
					"type": "constructor"
				},
				{
					"inputs": [],
					"name": "deposit",
					"outputs": [],
					"stateMutability": "payable",
					"type": "function"
				},
				{
					"inputs": [],
					"name": "emergencyWithdraw",
					"outputs": [],
					"stateMutability": "nonpayable",
					"type": "function"
				},
				{
					"inputs": [
						{
							"internalType": "address",
							"name": "user",
							"type": "address"
						}
					],
					"name": "getBalance",
					"outputs": [
						{
							"internalType": "uint256",
							"name": "",
							"type": "uint256"
						}
					],
					"stateMutability": "view",
					"type": "function"
				},
				{
					"inputs": [
						{
							"internalType": "uint256",
							"name": "amount",
							"type": "uint256"
						}
					],
					"name": "withdraw",
					"outputs": [],
					"stateMutability": "nonpayable",
					"type": "function"
				}
			],
			"devdoc": {
				"kind": "dev",
				"methods": {},
				"version": 1
			},
			"evm": {
				"assembly": "    /* \"soliditymeliproject/contracts/vaultori.sol\":59:764  contract Vault {... */\n  mstore(0x40, 0xa0)\n    /* \"soliditymeliproject/contracts/vaultori.sol\":158:197  constructor() {... */\n  callvalue\n  dup1\n  iszero\n  tag_1\n  jumpi\n  revert(0x00, 0x00)\ntag_1:\n  pop\n    /* \"soliditymeliproject/contracts/vaultori.sol\":183:193  msg.sender */\n  caller\n    /* \"soliditymeliproject/contracts/vaultori.sol\":175:193  owner = msg.sender */\n  0xffffffffffffffffffffffffffffffffffffffff\n  and\n  0x80\n  dup2\n  0xffffffffffffffffffffffffffffffffffffffff\n  and\n  dup2\n  mstore\n  pop\n  pop\n    /* \"soliditymeliproject/contracts/vaultori.sol\":59:764  contract Vault {... */\n  mload(0x80)\n  codecopy(0x00, dataOffset(sub_0), dataSize(sub_0))\n  0x00\n  assignImmutable(\"0x52f1a9b320cab38e5da8a8f97989383aab0a49165fc91c737310e4f7e9821021\")\n  return(0x00, dataSize(sub_0))\nstop\n\nsub_0: assembly {\n        /* \"soliditymeliproject/contracts/vaultori.sol\":59:764  contract Vault {... */\n      mstore(0x40, 0x80)\n      jumpi(tag_1, lt(calldatasize, 0x04))\n      shr(0xe0, calldataload(0x00))\n      dup1\n      0x2e1a7d4d\n      eq\n      tag_2\n      jumpi\n      dup1\n      0xd0e30db0\n      eq\n      tag_3\n      jumpi\n      dup1\n      0xdb2e21bc\n      eq\n      tag_4\n      jumpi\n      dup1\n      0xf8b2cb4f\n      eq\n      tag_5\n      jumpi\n    tag_1:\n      revert(0x00, 0x00)\n        /* \"soliditymeliproject/contracts/vaultori.sol\":336:521  function withdraw(uint256 amount) external {... */\n    tag_2:\n      callvalue\n      dup1\n      iszero\n      tag_6\n      jumpi\n      revert(0x00, 0x00)\n    tag_6:\n      pop\n      tag_7\n      0x04\n      dup1\n      calldatasize\n      sub\n      dup2\n      add\n      swap1\n      tag_8\n      swap2\n      swap1\n      tag_9\n      jump\t// in\n    tag_8:\n      tag_10\n      jump\t// in\n    tag_7:\n      stop\n        /* \"soliditymeliproject/contracts/vaultori.sol\":199:334  function deposit() external payable {... */\n    tag_3:\n      tag_11\n      tag_12\n      jump\t// in\n    tag_11:\n      stop\n        /* \"soliditymeliproject/contracts/vaultori.sol\":622:761  function emergencyWithdraw() external {... */\n    tag_4:\n      callvalue\n      dup1\n      iszero\n      tag_13\n      jumpi\n      revert(0x00, 0x00)\n    tag_13:\n      pop\n      tag_14\n      tag_15\n      jump\t// in\n    tag_14:\n      stop\n        /* \"soliditymeliproject/contracts/vaultori.sol\":523:620  function getBalance(address user) external view returns... */\n    tag_5:\n      callvalue\n      dup1\n      iszero\n      tag_16\n      jumpi\n      revert(0x00, 0x00)\n    tag_16:\n      pop\n      tag_17\n      0x04\n      dup1\n      calldatasize\n      sub\n      dup2\n      add\n      swap1\n      tag_18\n      swap2\n      swap1\n      tag_19\n      jump\t// in\n    tag_18:\n      tag_20\n      jump\t// in\n    tag_17:\n      mload(0x40)\n      tag_21\n      swap2\n      swap1\n      tag_22\n      jump\t// in\n    tag_21:\n      mload(0x40)\n      dup1\n      swap2\n      sub\n      swap1\n      return\n        /* \"soliditymeliproject/contracts/vaultori.sol\":336:521  function withdraw(uint256 amount) external {... */\n    tag_10:\n        /* \"soliditymeliproject/contracts/vaultori.sol\":414:420  amount */\n      dup1\n        /* \"soliditymeliproject/contracts/vaultori.sol\":390:398  balances */\n      0x00\n        /* \"soliditymeliproject/contracts/vaultori.sol\":390:410  balances[msg.sender] */\n      0x00\n        /* \"soliditymeliproject/contracts/vaultori.sol\":399:409  msg.sender */\n      caller\n        /* \"soliditymeliproject/contracts/vaultori.sol\":390:410  balances[msg.sender] */\n      0xffffffffffffffffffffffffffffffffffffffff\n      and\n      0xffffffffffffffffffffffffffffffffffffffff\n      and\n      dup2\n      mstore\n      0x20\n      add\n      swap1\n      dup2\n      mstore\n      0x20\n      add\n      0x00\n      keccak256\n      sload\n        /* \"soliditymeliproject/contracts/vaultori.sol\":390:420  balances[msg.sender] >= amount */\n      lt\n      iszero\n        /* \"soliditymeliproject/contracts/vaultori.sol\":382:445  require(balances[msg.sender] >= amount, \"Insufficient balance\") */\n      tag_24\n      jumpi\n      mload(0x40)\n      0x08c379a000000000000000000000000000000000000000000000000000000000\n      dup2\n      mstore\n      0x04\n      add\n      tag_25\n      swap1\n      tag_26\n      jump\t// in\n    tag_25:\n      mload(0x40)\n      dup1\n      swap2\n      sub\n      swap1\n      revert\n    tag_24:\n        /* \"soliditymeliproject/contracts/vaultori.sol\":472:478  amount */\n      dup1\n        /* \"soliditymeliproject/contracts/vaultori.sol\":448:456  balances */\n      0x00\n        /* \"soliditymeliproject/contracts/vaultori.sol\":448:468  balances[msg.sender] */\n      0x00\n        /* \"soliditymeliproject/contracts/vaultori.sol\":457:467  msg.sender */\n      caller\n        /* \"soliditymeliproject/contracts/vaultori.sol\":448:468  balances[msg.sender] */\n      0xffffffffffffffffffffffffffffffffffffffff\n      and\n      0xffffffffffffffffffffffffffffffffffffffff\n      and\n      dup2\n      mstore\n      0x20\n      add\n      swap1\n      dup2\n      mstore\n      0x20\n      add\n      0x00\n      keccak256\n      0x00\n        /* \"soliditymeliproject/contracts/vaultori.sol\":448:478  balances[msg.sender] -= amount */\n      dup3\n      dup3\n      sload\n      tag_27\n      swap2\n      swap1\n      tag_28\n      jump\t// in\n    tag_27:\n      swap3\n      pop\n      pop\n      dup2\n      swap1\n      sstore\n      pop\n        /* \"soliditymeliproject/contracts/vaultori.sol\":489:499  msg.sender */\n      caller\n        /* \"soliditymeliproject/contracts/vaultori.sol\":481:509  payable(msg.sender).transfer */\n      0xffffffffffffffffffffffffffffffffffffffff\n      and\n        /* \"soliditymeliproject/contracts/vaultori.sol\":481:517  payable(msg.sender).transfer(amount) */\n      0x08fc\n        /* \"soliditymeliproject/contracts/vaultori.sol\":510:516  amount */\n      dup3\n        /* \"soliditymeliproject/contracts/vaultori.sol\":481:517  payable(msg.sender).transfer(amount) */\n      swap1\n      dup2\n      iszero\n      mul\n      swap1\n      mload(0x40)\n      0x00\n      mload(0x40)\n      dup1\n      dup4\n      sub\n      dup2\n      dup6\n      dup9\n      dup9\n      call\n      swap4\n      pop\n      pop\n      pop\n      pop\n      iszero\n      dup1\n      iszero\n      tag_30\n      jumpi\n      returndatacopy(0x00, 0x00, returndatasize)\n      revert(0x00, returndatasize)\n    tag_30:\n      pop\n        /* \"soliditymeliproject/contracts/vaultori.sol\":336:521  function withdraw(uint256 amount) external {... */\n      pop\n      jump\t// out\n        /* \"soliditymeliproject/contracts/vaultori.sol\":199:334  function deposit() external payable {... */\n    tag_12:\n        /* \"soliditymeliproject/contracts/vaultori.sol\":258:259  0 */\n      0x00\n        /* \"soliditymeliproject/contracts/vaultori.sol\":246:255  msg.value */\n      callvalue\n        /* \"soliditymeliproject/contracts/vaultori.sol\":246:259  msg.value > 0 */\n      gt\n        /* \"soliditymeliproject/contracts/vaultori.sol\":238:294  require(msg.value > 0, \"Deposit must be greater than 0\") */\n      tag_32\n      jumpi\n      mload(0x40)\n      0x08c379a000000000000000000000000000000000000000000000000000000000\n      dup2\n      mstore\n      0x04\n      add\n      tag_33\n      swap1\n      tag_34\n      jump\t// in\n    tag_33:\n      mload(0x40)\n      dup1\n      swap2\n      sub\n      swap1\n      revert\n    tag_32:\n        /* \"soliditymeliproject/contracts/vaultori.sol\":321:330  msg.value */\n      callvalue\n        /* \"soliditymeliproject/contracts/vaultori.sol\":297:305  balances */\n      0x00\n        /* \"soliditymeliproject/contracts/vaultori.sol\":297:317  balances[msg.sender] */\n      0x00\n        /* \"soliditymeliproject/contracts/vaultori.sol\":306:316  msg.sender */\n      caller\n        /* \"soliditymeliproject/contracts/vaultori.sol\":297:317  balances[msg.sender] */\n      0xffffffffffffffffffffffffffffffffffffffff\n      and\n      0xffffffffffffffffffffffffffffffffffffffff\n      and\n      dup2\n      mstore\n      0x20\n      add\n      swap1\n      dup2\n      mstore\n      0x20\n      add\n      0x00\n      keccak256\n      0x00\n        /* \"soliditymeliproject/contracts/vaultori.sol\":297:330  balances[msg.sender] += msg.value */\n      dup3\n      dup3\n      sload\n      tag_35\n      swap2\n      swap1\n      tag_36\n      jump\t// in\n    tag_35:\n      swap3\n      pop\n      pop\n      dup2\n      swap1\n      sstore\n      pop\n        /* \"soliditymeliproject/contracts/vaultori.sol\":199:334  function deposit() external payable {... */\n      jump\t// out\n        /* \"soliditymeliproject/contracts/vaultori.sol\":622:761  function emergencyWithdraw() external {... */\n    tag_15:\n        /* \"soliditymeliproject/contracts/vaultori.sol\":684:689  owner */\n      immutable(\"0x52f1a9b320cab38e5da8a8f97989383aab0a49165fc91c737310e4f7e9821021\")\n        /* \"soliditymeliproject/contracts/vaultori.sol\":671:689  tx.origin == owner */\n      0xffffffffffffffffffffffffffffffffffffffff\n      and\n        /* \"soliditymeliproject/contracts/vaultori.sol\":671:680  tx.origin */\n      origin\n        /* \"soliditymeliproject/contracts/vaultori.sol\":671:689  tx.origin == owner */\n      0xffffffffffffffffffffffffffffffffffffffff\n      and\n      eq\n        /* \"soliditymeliproject/contracts/vaultori.sol\":663:708  require(tx.origin == owner, \"Not authorized\") */\n      tag_38\n      jumpi\n      mload(0x40)\n      0x08c379a000000000000000000000000000000000000000000000000000000000\n      dup2\n      mstore\n      0x04\n      add\n      tag_39\n      swap1\n      tag_40\n      jump\t// in\n    tag_39:\n      mload(0x40)\n      dup1\n      swap2\n      sub\n      swap1\n      revert\n    tag_38:\n        /* \"soliditymeliproject/contracts/vaultori.sol\":719:724  owner */\n      immutable(\"0x52f1a9b320cab38e5da8a8f97989383aab0a49165fc91c737310e4f7e9821021\")\n        /* \"soliditymeliproject/contracts/vaultori.sol\":711:734  payable(owner).transfer */\n      0xffffffffffffffffffffffffffffffffffffffff\n      and\n        /* \"soliditymeliproject/contracts/vaultori.sol\":711:757  payable(owner).transfer(address(this).balance) */\n      0x08fc\n        /* \"soliditymeliproject/contracts/vaultori.sol\":735:756  address(this).balance */\n      selfbalance\n        /* \"soliditymeliproject/contracts/vaultori.sol\":711:757  payable(owner).transfer(address(this).balance) */\n      swap1\n      dup2\n      iszero\n      mul\n      swap1\n      mload(0x40)\n      0x00\n      mload(0x40)\n      dup1\n      dup4\n      sub\n      dup2\n      dup6\n      dup9\n      dup9\n      call\n      swap4\n      pop\n      pop\n      pop\n      pop\n      iszero\n      dup1\n      iszero\n      tag_42\n      jumpi\n      returndatacopy(0x00, 0x00, returndatasize)\n      revert(0x00, returndatasize)\n    tag_42:\n      pop\n        /* \"soliditymeliproject/contracts/vaultori.sol\":622:761  function emergencyWithdraw() external {... */\n      jump\t// out\n        /* \"soliditymeliproject/contracts/vaultori.sol\":523:620  function getBalance(address user) external view returns... */\n    tag_20:\n        /* \"soliditymeliproject/contracts/vaultori.sol\":581:588  uint256 */\n      0x00\n        /* \"soliditymeliproject/contracts/vaultori.sol\":602:610  balances */\n      0x00\n        /* \"soliditymeliproject/contracts/vaultori.sol\":602:616  balances[user] */\n      0x00\n        /* \"soliditymeliproject/contracts/vaultori.sol\":611:615  user */\n      dup4\n        /* \"soliditymeliproject/contracts/vaultori.sol\":602:616  balances[user] */\n      0xffffffffffffffffffffffffffffffffffffffff\n      and\n      0xffffffffffffffffffffffffffffffffffffffff\n      and\n      dup2\n      mstore\n      0x20\n      add\n      swap1\n      dup2\n      mstore\n      0x20\n      add\n      0x00\n      keccak256\n      sload\n        /* \"soliditymeliproject/contracts/vaultori.sol\":595:616  return balances[user] */\n      swap1\n      pop\n        /* \"soliditymeliproject/contracts/vaultori.sol\":523:620  function getBalance(address user) external view returns... */\n      swap2\n      swap1\n      pop\n      jump\t// out\n        /* \"#utility.yul\":88:205   */\n    tag_45:\n        /* \"#utility.yul\":197:198   */\n      0x00\n        /* \"#utility.yul\":194:195   */\n      0x00\n        /* \"#utility.yul\":187:199   */\n      revert\n        /* \"#utility.yul\":334:411   */\n    tag_47:\n        /* \"#utility.yul\":371:378   */\n      0x00\n        /* \"#utility.yul\":400:405   */\n      dup2\n        /* \"#utility.yul\":389:405   */\n      swap1\n      pop\n        /* \"#utility.yul\":334:411   */\n      swap2\n      swap1\n      pop\n      jump\t// out\n        /* \"#utility.yul\":417:539   */\n    tag_48:\n        /* \"#utility.yul\":490:514   */\n      tag_69\n        /* \"#utility.yul\":508:513   */\n      dup2\n        /* \"#utility.yul\":490:514   */\n      tag_47\n      jump\t// in\n    tag_69:\n        /* \"#utility.yul\":483:488   */\n      dup2\n        /* \"#utility.yul\":480:515   */\n      eq\n        /* \"#utility.yul\":470:533   */\n      tag_70\n      jumpi\n        /* \"#utility.yul\":529:530   */\n      0x00\n        /* \"#utility.yul\":526:527   */\n      0x00\n        /* \"#utility.yul\":519:531   */\n      revert\n        /* \"#utility.yul\":470:533   */\n    tag_70:\n        /* \"#utility.yul\":417:539   */\n      pop\n      jump\t// out\n        /* \"#utility.yul\":545:684   */\n    tag_49:\n        /* \"#utility.yul\":591:596   */\n      0x00\n        /* \"#utility.yul\":629:635   */\n      dup2\n        /* \"#utility.yul\":616:636   */\n      calldataload\n        /* \"#utility.yul\":607:636   */\n      swap1\n      pop\n        /* \"#utility.yul\":645:678   */\n      tag_72\n        /* \"#utility.yul\":672:677   */\n      dup2\n        /* \"#utility.yul\":645:678   */\n      tag_48\n      jump\t// in\n    tag_72:\n        /* \"#utility.yul\":545:684   */\n      swap3\n      swap2\n      pop\n      pop\n      jump\t// out\n        /* \"#utility.yul\":690:1019   */\n    tag_9:\n        /* \"#utility.yul\":749:755   */\n      0x00\n        /* \"#utility.yul\":798:800   */\n      0x20\n        /* \"#utility.yul\":786:795   */\n      dup3\n        /* \"#utility.yul\":777:784   */\n      dup5\n        /* \"#utility.yul\":773:796   */\n      sub\n        /* \"#utility.yul\":769:801   */\n      slt\n        /* \"#utility.yul\":766:885   */\n      iszero\n      tag_74\n      jumpi\n        /* \"#utility.yul\":804:883   */\n      tag_75\n      tag_45\n      jump\t// in\n    tag_75:\n        /* \"#utility.yul\":766:885   */\n    tag_74:\n        /* \"#utility.yul\":924:925   */\n      0x00\n        /* \"#utility.yul\":949:1002   */\n      tag_76\n        /* \"#utility.yul\":994:1001   */\n      dup5\n        /* \"#utility.yul\":985:991   */\n      dup3\n        /* \"#utility.yul\":974:983   */\n      dup6\n        /* \"#utility.yul\":970:992   */\n      add\n        /* \"#utility.yul\":949:1002   */\n      tag_49\n      jump\t// in\n    tag_76:\n        /* \"#utility.yul\":939:1002   */\n      swap2\n      pop\n        /* \"#utility.yul\":895:1012   */\n      pop\n        /* \"#utility.yul\":690:1019   */\n      swap3\n      swap2\n      pop\n      pop\n      jump\t// out\n        /* \"#utility.yul\":1025:1151   */\n    tag_50:\n        /* \"#utility.yul\":1062:1069   */\n      0x00\n        /* \"#utility.yul\":1102:1144   */\n      0xffffffffffffffffffffffffffffffffffffffff\n        /* \"#utility.yul\":1095:1100   */\n      dup3\n        /* \"#utility.yul\":1091:1145   */\n      and\n        /* \"#utility.yul\":1080:1145   */\n      swap1\n      pop\n        /* \"#utility.yul\":1025:1151   */\n      swap2\n      swap1\n      pop\n      jump\t// out\n        /* \"#utility.yul\":1157:1253   */\n    tag_51:\n        /* \"#utility.yul\":1194:1201   */\n      0x00\n        /* \"#utility.yul\":1223:1247   */\n      tag_79\n        /* \"#utility.yul\":1241:1246   */\n      dup3\n        /* \"#utility.yul\":1223:1247   */\n      tag_50\n      jump\t// in\n    tag_79:\n        /* \"#utility.yul\":1212:1247   */\n      swap1\n      pop\n        /* \"#utility.yul\":1157:1253   */\n      swap2\n      swap1\n      pop\n      jump\t// out\n        /* \"#utility.yul\":1259:1381   */\n    tag_52:\n        /* \"#utility.yul\":1332:1356   */\n      tag_81\n        /* \"#utility.yul\":1350:1355   */\n      dup2\n        /* \"#utility.yul\":1332:1356   */\n      tag_51\n      jump\t// in\n    tag_81:\n        /* \"#utility.yul\":1325:1330   */\n      dup2\n        /* \"#utility.yul\":1322:1357   */\n      eq\n        /* \"#utility.yul\":1312:1375   */\n      tag_82\n      jumpi\n        /* \"#utility.yul\":1371:1372   */\n      0x00\n        /* \"#utility.yul\":1368:1369   */\n      0x00\n        /* \"#utility.yul\":1361:1373   */\n      revert\n        /* \"#utility.yul\":1312:1375   */\n    tag_82:\n        /* \"#utility.yul\":1259:1381   */\n      pop\n      jump\t// out\n        /* \"#utility.yul\":1387:1526   */\n    tag_53:\n        /* \"#utility.yul\":1433:1438   */\n      0x00\n        /* \"#utility.yul\":1471:1477   */\n      dup2\n        /* \"#utility.yul\":1458:1478   */\n      calldataload\n        /* \"#utility.yul\":1449:1478   */\n      swap1\n      pop\n        /* \"#utility.yul\":1487:1520   */\n      tag_84\n        /* \"#utility.yul\":1514:1519   */\n      dup2\n        /* \"#utility.yul\":1487:1520   */\n      tag_52\n      jump\t// in\n    tag_84:\n        /* \"#utility.yul\":1387:1526   */\n      swap3\n      swap2\n      pop\n      pop\n      jump\t// out\n        /* \"#utility.yul\":1532:1861   */\n    tag_19:\n        /* \"#utility.yul\":1591:1597   */\n      0x00\n        /* \"#utility.yul\":1640:1642   */\n      0x20\n        /* \"#utility.yul\":1628:1637   */\n      dup3\n        /* \"#utility.yul\":1619:1626   */\n      dup5\n        /* \"#utility.yul\":1615:1638   */\n      sub\n        /* \"#utility.yul\":1611:1643   */\n      slt\n        /* \"#utility.yul\":1608:1727   */\n      iszero\n      tag_86\n      jumpi\n        /* \"#utility.yul\":1646:1725   */\n      tag_87\n      tag_45\n      jump\t// in\n    tag_87:\n        /* \"#utility.yul\":1608:1727   */\n    tag_86:\n        /* \"#utility.yul\":1766:1767   */\n      0x00\n        /* \"#utility.yul\":1791:1844   */\n      tag_88\n        /* \"#utility.yul\":1836:1843   */\n      dup5\n        /* \"#utility.yul\":1827:1833   */\n      dup3\n        /* \"#utility.yul\":1816:1825   */\n      dup6\n        /* \"#utility.yul\":1812:1834   */\n      add\n        /* \"#utility.yul\":1791:1844   */\n      tag_53\n      jump\t// in\n    tag_88:\n        /* \"#utility.yul\":1781:1844   */\n      swap2\n      pop\n        /* \"#utility.yul\":1737:1854   */\n      pop\n        /* \"#utility.yul\":1532:1861   */\n      swap3\n      swap2\n      pop\n      pop\n      jump\t// out\n        /* \"#utility.yul\":1867:1985   */\n    tag_54:\n        /* \"#utility.yul\":1954:1978   */\n      tag_90\n        /* \"#utility.yul\":1972:1977   */\n      dup2\n        /* \"#utility.yul\":1954:1978   */\n      tag_47\n      jump\t// in\n    tag_90:\n        /* \"#utility.yul\":1949:1952   */\n      dup3\n        /* \"#utility.yul\":1942:1979   */\n      mstore\n        /* \"#utility.yul\":1867:1985   */\n      pop\n      pop\n      jump\t// out\n        /* \"#utility.yul\":1991:2213   */\n    tag_22:\n        /* \"#utility.yul\":2084:2088   */\n      0x00\n        /* \"#utility.yul\":2122:2124   */\n      0x20\n        /* \"#utility.yul\":2111:2120   */\n      dup3\n        /* \"#utility.yul\":2107:2125   */\n      add\n        /* \"#utility.yul\":2099:2125   */\n      swap1\n      pop\n        /* \"#utility.yul\":2135:2206   */\n      tag_92\n        /* \"#utility.yul\":2203:2204   */\n      0x00\n        /* \"#utility.yul\":2192:2201   */\n      dup4\n        /* \"#utility.yul\":2188:2205   */\n      add\n        /* \"#utility.yul\":2179:2185   */\n      dup5\n        /* \"#utility.yul\":2135:2206   */\n      tag_54\n      jump\t// in\n    tag_92:\n        /* \"#utility.yul\":1991:2213   */\n      swap3\n      swap2\n      pop\n      pop\n      jump\t// out\n        /* \"#utility.yul\":2219:2388   */\n    tag_55:\n        /* \"#utility.yul\":2303:2314   */\n      0x00\n        /* \"#utility.yul\":2337:2343   */\n      dup3\n        /* \"#utility.yul\":2332:2335   */\n      dup3\n        /* \"#utility.yul\":2325:2344   */\n      mstore\n        /* \"#utility.yul\":2377:2381   */\n      0x20\n        /* \"#utility.yul\":2372:2375   */\n      dup3\n        /* \"#utility.yul\":2368:2382   */\n      add\n        /* \"#utility.yul\":2353:2382   */\n      swap1\n      pop\n        /* \"#utility.yul\":2219:2388   */\n      swap3\n      swap2\n      pop\n      pop\n      jump\t// out\n        /* \"#utility.yul\":2394:2564   */\n    tag_56:\n        /* \"#utility.yul\":2534:2556   */\n      0x496e73756666696369656e742062616c616e6365000000000000000000000000\n        /* \"#utility.yul\":2530:2531   */\n      0x00\n        /* \"#utility.yul\":2522:2528   */\n      dup3\n        /* \"#utility.yul\":2518:2532   */\n      add\n        /* \"#utility.yul\":2511:2557   */\n      mstore\n        /* \"#utility.yul\":2394:2564   */\n      pop\n      jump\t// out\n        /* \"#utility.yul\":2570:2936   */\n    tag_57:\n        /* \"#utility.yul\":2712:2715   */\n      0x00\n        /* \"#utility.yul\":2733:2800   */\n      tag_96\n        /* \"#utility.yul\":2797:2799   */\n      0x14\n        /* \"#utility.yul\":2792:2795   */\n      dup4\n        /* \"#utility.yul\":2733:2800   */\n      tag_55\n      jump\t// in\n    tag_96:\n        /* \"#utility.yul\":2726:2800   */\n      swap2\n      pop\n        /* \"#utility.yul\":2809:2902   */\n      tag_97\n        /* \"#utility.yul\":2898:2901   */\n      dup3\n        /* \"#utility.yul\":2809:2902   */\n      tag_56\n      jump\t// in\n    tag_97:\n        /* \"#utility.yul\":2927:2929   */\n      0x20\n        /* \"#utility.yul\":2922:2925   */\n      dup3\n        /* \"#utility.yul\":2918:2930   */\n      add\n        /* \"#utility.yul\":2911:2930   */\n      swap1\n      pop\n        /* \"#utility.yul\":2570:2936   */\n      swap2\n      swap1\n      pop\n      jump\t// out\n        /* \"#utility.yul\":2942:3361   */\n    tag_26:\n        /* \"#utility.yul\":3108:3112   */\n      0x00\n        /* \"#utility.yul\":3146:3148   */\n      0x20\n        /* \"#utility.yul\":3135:3144   */\n      dup3\n        /* \"#utility.yul\":3131:3149   */\n      add\n        /* \"#utility.yul\":3123:3149   */\n      swap1\n      pop\n        /* \"#utility.yul\":3195:3204   */\n      dup2\n        /* \"#utility.yul\":3189:3193   */\n      dup2\n        /* \"#utility.yul\":3185:3205   */\n      sub\n        /* \"#utility.yul\":3181:3182   */\n      0x00\n        /* \"#utility.yul\":3170:3179   */\n      dup4\n        /* \"#utility.yul\":3166:3183   */\n      add\n        /* \"#utility.yul\":3159:3206   */\n      mstore\n        /* \"#utility.yul\":3223:3354   */\n      tag_99\n        /* \"#utility.yul\":3349:3353   */\n      dup2\n        /* \"#utility.yul\":3223:3354   */\n      tag_57\n      jump\t// in\n    tag_99:\n        /* \"#utility.yul\":3215:3354   */\n      swap1\n      pop\n        /* \"#utility.yul\":2942:3361   */\n      swap2\n      swap1\n      pop\n      jump\t// out\n        /* \"#utility.yul\":3367:3547   */\n    tag_58:\n        /* \"#utility.yul\":3415:3492   */\n      0x4e487b7100000000000000000000000000000000000000000000000000000000\n        /* \"#utility.yul\":3412:3413   */\n      0x00\n        /* \"#utility.yul\":3405:3493   */\n      mstore\n        /* \"#utility.yul\":3512:3516   */\n      0x11\n        /* \"#utility.yul\":3509:3510   */\n      0x04\n        /* \"#utility.yul\":3502:3517   */\n      mstore\n        /* \"#utility.yul\":3536:3540   */\n      0x24\n        /* \"#utility.yul\":3533:3534   */\n      0x00\n        /* \"#utility.yul\":3526:3541   */\n      revert\n        /* \"#utility.yul\":3553:3747   */\n    tag_28:\n        /* \"#utility.yul\":3593:3597   */\n      0x00\n        /* \"#utility.yul\":3613:3633   */\n      tag_102\n        /* \"#utility.yul\":3631:3632   */\n      dup3\n        /* \"#utility.yul\":3613:3633   */\n      tag_47\n      jump\t// in\n    tag_102:\n        /* \"#utility.yul\":3608:3633   */\n      swap2\n      pop\n        /* \"#utility.yul\":3647:3667   */\n      tag_103\n        /* \"#utility.yul\":3665:3666   */\n      dup4\n        /* \"#utility.yul\":3647:3667   */\n      tag_47\n      jump\t// in\n    tag_103:\n        /* \"#utility.yul\":3642:3667   */\n      swap3\n      pop\n        /* \"#utility.yul\":3691:3692   */\n      dup3\n        /* \"#utility.yul\":3688:3689   */\n      dup3\n        /* \"#utility.yul\":3684:3693   */\n      sub\n        /* \"#utility.yul\":3676:3693   */\n      swap1\n      pop\n        /* \"#utility.yul\":3715:3716   */\n      dup2\n        /* \"#utility.yul\":3709:3713   */\n      dup2\n        /* \"#utility.yul\":3706:3717   */\n      gt\n        /* \"#utility.yul\":3703:3740   */\n      iszero\n      tag_104\n      jumpi\n        /* \"#utility.yul\":3720:3738   */\n      tag_105\n      tag_58\n      jump\t// in\n    tag_105:\n        /* \"#utility.yul\":3703:3740   */\n    tag_104:\n        /* \"#utility.yul\":3553:3747   */\n      swap3\n      swap2\n      pop\n      pop\n      jump\t// out\n        /* \"#utility.yul\":3753:3933   */\n    tag_59:\n        /* \"#utility.yul\":3893:3925   */\n      0x4465706f736974206d7573742062652067726561746572207468616e20300000\n        /* \"#utility.yul\":3889:3890   */\n      0x00\n        /* \"#utility.yul\":3881:3887   */\n      dup3\n        /* \"#utility.yul\":3877:3891   */\n      add\n        /* \"#utility.yul\":3870:3926   */\n      mstore\n        /* \"#utility.yul\":3753:3933   */\n      pop\n      jump\t// out\n        /* \"#utility.yul\":3939:4305   */\n    tag_60:\n        /* \"#utility.yul\":4081:4084   */\n      0x00\n        /* \"#utility.yul\":4102:4169   */\n      tag_108\n        /* \"#utility.yul\":4166:4168   */\n      0x1e\n        /* \"#utility.yul\":4161:4164   */\n      dup4\n        /* \"#utility.yul\":4102:4169   */\n      tag_55\n      jump\t// in\n    tag_108:\n        /* \"#utility.yul\":4095:4169   */\n      swap2\n      pop\n        /* \"#utility.yul\":4178:4271   */\n      tag_109\n        /* \"#utility.yul\":4267:4270   */\n      dup3\n        /* \"#utility.yul\":4178:4271   */\n      tag_59\n      jump\t// in\n    tag_109:\n        /* \"#utility.yul\":4296:4298   */\n      0x20\n        /* \"#utility.yul\":4291:4294   */\n      dup3\n        /* \"#utility.yul\":4287:4299   */\n      add\n        /* \"#utility.yul\":4280:4299   */\n      swap1\n      pop\n        /* \"#utility.yul\":3939:4305   */\n      swap2\n      swap1\n      pop\n      jump\t// out\n        /* \"#utility.yul\":4311:4730   */\n    tag_34:\n        /* \"#utility.yul\":4477:4481   */\n      0x00\n        /* \"#utility.yul\":4515:4517   */\n      0x20\n        /* \"#utility.yul\":4504:4513   */\n      dup3\n        /* \"#utility.yul\":4500:4518   */\n      add\n        /* \"#utility.yul\":4492:4518   */\n      swap1\n      pop\n        /* \"#utility.yul\":4564:4573   */\n      dup2\n        /* \"#utility.yul\":4558:4562   */\n      dup2\n        /* \"#utility.yul\":4554:4574   */\n      sub\n        /* \"#utility.yul\":4550:4551   */\n      0x00\n        /* \"#utility.yul\":4539:4548   */\n      dup4\n        /* \"#utility.yul\":4535:4552   */\n      add\n        /* \"#utility.yul\":4528:4575   */\n      mstore\n        /* \"#utility.yul\":4592:4723   */\n      tag_111\n        /* \"#utility.yul\":4718:4722   */\n      dup2\n        /* \"#utility.yul\":4592:4723   */\n      tag_60\n      jump\t// in\n    tag_111:\n        /* \"#utility.yul\":4584:4723   */\n      swap1\n      pop\n        /* \"#utility.yul\":4311:4730   */\n      swap2\n      swap1\n      pop\n      jump\t// out\n        /* \"#utility.yul\":4736:4927   */\n    tag_36:\n        /* \"#utility.yul\":4776:4779   */\n      0x00\n        /* \"#utility.yul\":4795:4815   */\n      tag_113\n        /* \"#utility.yul\":4813:4814   */\n      dup3\n        /* \"#utility.yul\":4795:4815   */\n      tag_47\n      jump\t// in\n    tag_113:\n        /* \"#utility.yul\":4790:4815   */\n      swap2\n      pop\n        /* \"#utility.yul\":4829:4849   */\n      tag_114\n        /* \"#utility.yul\":4847:4848   */\n      dup4\n        /* \"#utility.yul\":4829:4849   */\n      tag_47\n      jump\t// in\n    tag_114:\n        /* \"#utility.yul\":4824:4849   */\n      swap3\n      pop\n        /* \"#utility.yul\":4872:4873   */\n      dup3\n        /* \"#utility.yul\":4869:4870   */\n      dup3\n        /* \"#utility.yul\":4865:4874   */\n      add\n        /* \"#utility.yul\":4858:4874   */\n      swap1\n      pop\n        /* \"#utility.yul\":4893:4896   */\n      dup1\n        /* \"#utility.yul\":4890:4891   */\n      dup3\n        /* \"#utility.yul\":4887:4897   */\n      gt\n        /* \"#utility.yul\":4884:4920   */\n      iszero\n      tag_115\n      jumpi\n        /* \"#utility.yul\":4900:4918   */\n      tag_116\n      tag_58\n      jump\t// in\n    tag_116:\n        /* \"#utility.yul\":4884:4920   */\n    tag_115:\n        /* \"#utility.yul\":4736:4927   */\n      swap3\n      swap2\n      pop\n      pop\n      jump\t// out\n        /* \"#utility.yul\":4933:5097   */\n    tag_61:\n        /* \"#utility.yul\":5073:5089   */\n      0x4e6f7420617574686f72697a6564000000000000000000000000000000000000\n        /* \"#utility.yul\":5069:5070   */\n      0x00\n        /* \"#utility.yul\":5061:5067   */\n      dup3\n        /* \"#utility.yul\":5057:5071   */\n      add\n        /* \"#utility.yul\":5050:5090   */\n      mstore\n        /* \"#utility.yul\":4933:5097   */\n      pop\n      jump\t// out\n        /* \"#utility.yul\":5103:5469   */\n    tag_62:\n        /* \"#utility.yul\":5245:5248   */\n      0x00\n        /* \"#utility.yul\":5266:5333   */\n      tag_119\n        /* \"#utility.yul\":5330:5332   */\n      0x0e\n        /* \"#utility.yul\":5325:5328   */\n      dup4\n        /* \"#utility.yul\":5266:5333   */\n      tag_55\n      jump\t// in\n    tag_119:\n        /* \"#utility.yul\":5259:5333   */\n      swap2\n      pop\n        /* \"#utility.yul\":5342:5435   */\n      tag_120\n        /* \"#utility.yul\":5431:5434   */\n      dup3\n        /* \"#utility.yul\":5342:5435   */\n      tag_61\n      jump\t// in\n    tag_120:\n        /* \"#utility.yul\":5460:5462   */\n      0x20\n        /* \"#utility.yul\":5455:5458   */\n      dup3\n        /* \"#utility.yul\":5451:5463   */\n      add\n        /* \"#utility.yul\":5444:5463   */\n      swap1\n      pop\n        /* \"#utility.yul\":5103:5469   */\n      swap2\n      swap1\n      pop\n      jump\t// out\n        /* \"#utility.yul\":5475:5894   */\n    tag_40:\n        /* \"#utility.yul\":5641:5645   */\n      0x00\n        /* \"#utility.yul\":5679:5681   */\n      0x20\n        /* \"#utility.yul\":5668:5677   */\n      dup3\n        /* \"#utility.yul\":5664:5682   */\n      add\n        /* \"#utility.yul\":5656:5682   */\n      swap1\n      pop\n        /* \"#utility.yul\":5728:5737   */\n      dup2\n        /* \"#utility.yul\":5722:5726   */\n      dup2\n        /* \"#utility.yul\":5718:5738   */\n      sub\n        /* \"#utility.yul\":5714:5715   */\n      0x00\n        /* \"#utility.yul\":5703:5712   */\n      dup4\n        /* \"#utility.yul\":5699:5716   */\n      add\n        /* \"#utility.yul\":5692:5739   */\n      mstore\n        /* \"#utility.yul\":5756:5887   */\n      tag_122\n        /* \"#utility.yul\":5882:5886   */\n      dup2\n        /* \"#utility.yul\":5756:5887   */\n      tag_62\n      jump\t// in\n    tag_122:\n        /* \"#utility.yul\":5748:5887   */\n      swap1\n      pop\n        /* \"#utility.yul\":5475:5894   */\n      swap2\n      swap1\n      pop\n      jump\t// out\n\n    auxdata: 0xa2646970667358221220c3e72bd93b0c3d7efef24fdcb2d552da37878aca267e743091e7ee99f36e445f64736f6c634300081e0033\n}\n",
				"bytecode": {
					"linkReferences": {},
					"object": "60a0604052348015600e575f5ffd5b503373ffffffffffffffffffffffffffffffffffffffff1660808173ffffffffffffffffffffffffffffffffffffffff16815250506080516106cd6100625f395f8181610276015261030401526106cd5ff3fe60806040526004361061003e575f3560e01c80632e1a7d4d14610042578063d0e30db01461006a578063db2e21bc14610074578063f8b2cb4f1461008a575b5f5ffd5b34801561004d575f5ffd5b50610068600480360381019061006391906103e4565b6100c6565b005b6100726101de565b005b34801561007f575f5ffd5b50610088610274565b005b348015610095575f5ffd5b506100b060048036038101906100ab9190610469565b610368565b6040516100bd91906104a3565b60405180910390f35b805f5f3373ffffffffffffffffffffffffffffffffffffffff1673ffffffffffffffffffffffffffffffffffffffff1681526020019081526020015f20541015610145576040517f08c379a000000000000000000000000000000000000000000000000000000000815260040161013c90610516565b60405180910390fd5b805f5f3373ffffffffffffffffffffffffffffffffffffffff1673ffffffffffffffffffffffffffffffffffffffff1681526020019081526020015f205f8282546101909190610561565b925050819055503373ffffffffffffffffffffffffffffffffffffffff166108fc8290811502906040515f60405180830381858888f193505050501580156101da573d5f5f3e3d5ffd5b5050565b5f3411610220576040517f08c379a0000000000000000000000000000000000000000000000000000000008152600401610217906105de565b60405180910390fd5b345f5f3373ffffffffffffffffffffffffffffffffffffffff1673ffffffffffffffffffffffffffffffffffffffff1681526020019081526020015f205f82825461026b91906105fc565b92505081905550565b7f000000000000000000000000000000000000000000000000000000000000000073ffffffffffffffffffffffffffffffffffffffff163273ffffffffffffffffffffffffffffffffffffffff1614610302576040517f08c379a00000000000000000000000000000000000000000000000000000000081526004016102f990610679565b60405180910390fd5b7f000000000000000000000000000000000000000000000000000000000000000073ffffffffffffffffffffffffffffffffffffffff166108fc4790811502906040515f60405180830381858888f19350505050158015610365573d5f5f3e3d5ffd5b50565b5f5f5f8373ffffffffffffffffffffffffffffffffffffffff1673ffffffffffffffffffffffffffffffffffffffff1681526020019081526020015f20549050919050565b5f5ffd5b5f819050919050565b6103c3816103b1565b81146103cd575f5ffd5b50565b5f813590506103de816103ba565b92915050565b5f602082840312156103f9576103f86103ad565b5b5f610406848285016103d0565b91505092915050565b5f73ffffffffffffffffffffffffffffffffffffffff82169050919050565b5f6104388261040f565b9050919050565b6104488161042e565b8114610452575f5ffd5b50565b5f813590506104638161043f565b92915050565b5f6020828403121561047e5761047d6103ad565b5b5f61048b84828501610455565b91505092915050565b61049d816103b1565b82525050565b5f6020820190506104b65f830184610494565b92915050565b5f82825260208201905092915050565b7f496e73756666696369656e742062616c616e63650000000000000000000000005f82015250565b5f6105006014836104bc565b915061050b826104cc565b602082019050919050565b5f6020820190508181035f83015261052d816104f4565b9050919050565b7f4e487b71000000000000000000000000000000000000000000000000000000005f52601160045260245ffd5b5f61056b826103b1565b9150610576836103b1565b925082820390508181111561058e5761058d610534565b5b92915050565b7f4465706f736974206d7573742062652067726561746572207468616e203000005f82015250565b5f6105c8601e836104bc565b91506105d382610594565b602082019050919050565b5f6020820190508181035f8301526105f5816105bc565b9050919050565b5f610606826103b1565b9150610611836103b1565b925082820190508082111561062957610628610534565b5b92915050565b7f4e6f7420617574686f72697a65640000000000000000000000000000000000005f82015250565b5f610663600e836104bc565b915061066e8261062f565b602082019050919050565b5f6020820190508181035f83015261069081610657565b905091905056fea2646970667358221220c3e72bd93b0c3d7efef24fdcb2d552da37878aca267e743091e7ee99f36e445f64736f6c634300081e0033",
					"opcodes": "PUSH1 0xA0 PUSH1 0x40 MSTORE CALLVALUE DUP1 ISZERO PUSH1 0xE JUMPI PUSH0 PUSH0 REVERT JUMPDEST POP CALLER PUSH20 0xFFFFFFFFFFFFFFFFFFFFFFFFFFFFFFFFFFFFFFFF AND PUSH1 0x80 DUP2 PUSH20 0xFFFFFFFFFFFFFFFFFFFFFFFFFFFFFFFFFFFFFFFF AND DUP2 MSTORE POP POP PUSH1 0x80 MLOAD PUSH2 0x6CD PUSH2 0x62 PUSH0 CODECOPY PUSH0 DUP2 DUP2 PUSH2 0x276 ADD MSTORE PUSH2 0x304 ADD MSTORE PUSH2 0x6CD PUSH0 RETURN INVALID PUSH1 0x80 PUSH1 0x40 MSTORE PUSH1 0x4 CALLDATASIZE LT PUSH2 0x3E JUMPI PUSH0 CALLDATALOAD PUSH1 0xE0 SHR DUP1 PUSH4 0x2E1A7D4D EQ PUSH2 0x42 JUMPI DUP1 PUSH4 0xD0E30DB0 EQ PUSH2 0x6A JUMPI DUP1 PUSH4 0xDB2E21BC EQ PUSH2 0x74 JUMPI DUP1 PUSH4 0xF8B2CB4F EQ PUSH2 0x8A JUMPI JUMPDEST PUSH0 PUSH0 REVERT JUMPDEST CALLVALUE DUP1 ISZERO PUSH2 0x4D JUMPI PUSH0 PUSH0 REVERT JUMPDEST POP PUSH2 0x68 PUSH1 0x4 DUP1 CALLDATASIZE SUB DUP2 ADD SWAP1 PUSH2 0x63 SWAP2 SWAP1 PUSH2 0x3E4 JUMP JUMPDEST PUSH2 0xC6 JUMP JUMPDEST STOP JUMPDEST PUSH2 0x72 PUSH2 0x1DE JUMP JUMPDEST STOP JUMPDEST CALLVALUE DUP1 ISZERO PUSH2 0x7F JUMPI PUSH0 PUSH0 REVERT JUMPDEST POP PUSH2 0x88 PUSH2 0x274 JUMP JUMPDEST STOP JUMPDEST CALLVALUE DUP1 ISZERO PUSH2 0x95 JUMPI PUSH0 PUSH0 REVERT JUMPDEST POP PUSH2 0xB0 PUSH1 0x4 DUP1 CALLDATASIZE SUB DUP2 ADD SWAP1 PUSH2 0xAB SWAP2 SWAP1 PUSH2 0x469 JUMP JUMPDEST PUSH2 0x368 JUMP JUMPDEST PUSH1 0x40 MLOAD PUSH2 0xBD SWAP2 SWAP1 PUSH2 0x4A3 JUMP JUMPDEST PUSH1 0x40 MLOAD DUP1 SWAP2 SUB SWAP1 RETURN JUMPDEST DUP1 PUSH0 PUSH0 CALLER PUSH20 0xFFFFFFFFFFFFFFFFFFFFFFFFFFFFFFFFFFFFFFFF AND PUSH20 0xFFFFFFFFFFFFFFFFFFFFFFFFFFFFFFFFFFFFFFFF AND DUP2 MSTORE PUSH1 0x20 ADD SWAP1 DUP2 MSTORE PUSH1 0x20 ADD PUSH0 KECCAK256 SLOAD LT ISZERO PUSH2 0x145 JUMPI PUSH1 0x40 MLOAD PUSH32 0x8C379A000000000000000000000000000000000000000000000000000000000 DUP2 MSTORE PUSH1 0x4 ADD PUSH2 0x13C SWAP1 PUSH2 0x516 JUMP JUMPDEST PUSH1 0x40 MLOAD DUP1 SWAP2 SUB SWAP1 REVERT JUMPDEST DUP1 PUSH0 PUSH0 CALLER PUSH20 0xFFFFFFFFFFFFFFFFFFFFFFFFFFFFFFFFFFFFFFFF AND PUSH20 0xFFFFFFFFFFFFFFFFFFFFFFFFFFFFFFFFFFFFFFFF AND DUP2 MSTORE PUSH1 0x20 ADD SWAP1 DUP2 MSTORE PUSH1 0x20 ADD PUSH0 KECCAK256 PUSH0 DUP3 DUP3 SLOAD PUSH2 0x190 SWAP2 SWAP1 PUSH2 0x561 JUMP JUMPDEST SWAP3 POP POP DUP2 SWAP1 SSTORE POP CALLER PUSH20 0xFFFFFFFFFFFFFFFFFFFFFFFFFFFFFFFFFFFFFFFF AND PUSH2 0x8FC DUP3 SWAP1 DUP2 ISZERO MUL SWAP1 PUSH1 0x40 MLOAD PUSH0 PUSH1 0x40 MLOAD DUP1 DUP4 SUB DUP2 DUP6 DUP9 DUP9 CALL SWAP4 POP POP POP POP ISZERO DUP1 ISZERO PUSH2 0x1DA JUMPI RETURNDATASIZE PUSH0 PUSH0 RETURNDATACOPY RETURNDATASIZE PUSH0 REVERT JUMPDEST POP POP JUMP JUMPDEST PUSH0 CALLVALUE GT PUSH2 0x220 JUMPI PUSH1 0x40 MLOAD PUSH32 0x8C379A000000000000000000000000000000000000000000000000000000000 DUP2 MSTORE PUSH1 0x4 ADD PUSH2 0x217 SWAP1 PUSH2 0x5DE JUMP JUMPDEST PUSH1 0x40 MLOAD DUP1 SWAP2 SUB SWAP1 REVERT JUMPDEST CALLVALUE PUSH0 PUSH0 CALLER PUSH20 0xFFFFFFFFFFFFFFFFFFFFFFFFFFFFFFFFFFFFFFFF AND PUSH20 0xFFFFFFFFFFFFFFFFFFFFFFFFFFFFFFFFFFFFFFFF AND DUP2 MSTORE PUSH1 0x20 ADD SWAP1 DUP2 MSTORE PUSH1 0x20 ADD PUSH0 KECCAK256 PUSH0 DUP3 DUP3 SLOAD PUSH2 0x26B SWAP2 SWAP1 PUSH2 0x5FC JUMP JUMPDEST SWAP3 POP POP DUP2 SWAP1 SSTORE POP JUMP JUMPDEST PUSH32 0x0 PUSH20 0xFFFFFFFFFFFFFFFFFFFFFFFFFFFFFFFFFFFFFFFF AND ORIGIN PUSH20 0xFFFFFFFFFFFFFFFFFFFFFFFFFFFFFFFFFFFFFFFF AND EQ PUSH2 0x302 JUMPI PUSH1 0x40 MLOAD PUSH32 0x8C379A000000000000000000000000000000000000000000000000000000000 DUP2 MSTORE PUSH1 0x4 ADD PUSH2 0x2F9 SWAP1 PUSH2 0x679 JUMP JUMPDEST PUSH1 0x40 MLOAD DUP1 SWAP2 SUB SWAP1 REVERT JUMPDEST PUSH32 0x0 PUSH20 0xFFFFFFFFFFFFFFFFFFFFFFFFFFFFFFFFFFFFFFFF AND PUSH2 0x8FC SELFBALANCE SWAP1 DUP2 ISZERO MUL SWAP1 PUSH1 0x40 MLOAD PUSH0 PUSH1 0x40 MLOAD DUP1 DUP4 SUB DUP2 DUP6 DUP9 DUP9 CALL SWAP4 POP POP POP POP ISZERO DUP1 ISZERO PUSH2 0x365 JUMPI RETURNDATASIZE PUSH0 PUSH0 RETURNDATACOPY RETURNDATASIZE PUSH0 REVERT JUMPDEST POP JUMP JUMPDEST PUSH0 PUSH0 PUSH0 DUP4 PUSH20 0xFFFFFFFFFFFFFFFFFFFFFFFFFFFFFFFFFFFFFFFF AND PUSH20 0xFFFFFFFFFFFFFFFFFFFFFFFFFFFFFFFFFFFFFFFF AND DUP2 MSTORE PUSH1 0x20 ADD SWAP1 DUP2 MSTORE PUSH1 0x20 ADD PUSH0 KECCAK256 SLOAD SWAP1 POP SWAP2 SWAP1 POP JUMP JUMPDEST PUSH0 PUSH0 REVERT JUMPDEST PUSH0 DUP2 SWAP1 POP SWAP2 SWAP1 POP JUMP JUMPDEST PUSH2 0x3C3 DUP2 PUSH2 0x3B1 JUMP JUMPDEST DUP2 EQ PUSH2 0x3CD JUMPI PUSH0 PUSH0 REVERT JUMPDEST POP JUMP JUMPDEST PUSH0 DUP2 CALLDATALOAD SWAP1 POP PUSH2 0x3DE DUP2 PUSH2 0x3BA JUMP JUMPDEST SWAP3 SWAP2 POP POP JUMP JUMPDEST PUSH0 PUSH1 0x20 DUP3 DUP5 SUB SLT ISZERO PUSH2 0x3F9 JUMPI PUSH2 0x3F8 PUSH2 0x3AD JUMP JUMPDEST JUMPDEST PUSH0 PUSH2 0x406 DUP5 DUP3 DUP6 ADD PUSH2 0x3D0 JUMP JUMPDEST SWAP2 POP POP SWAP3 SWAP2 POP POP JUMP JUMPDEST PUSH0 PUSH20 0xFFFFFFFFFFFFFFFFFFFFFFFFFFFFFFFFFFFFFFFF DUP3 AND SWAP1 POP SWAP2 SWAP1 POP JUMP JUMPDEST PUSH0 PUSH2 0x438 DUP3 PUSH2 0x40F JUMP JUMPDEST SWAP1 POP SWAP2 SWAP1 POP JUMP JUMPDEST PUSH2 0x448 DUP2 PUSH2 0x42E JUMP JUMPDEST DUP2 EQ PUSH2 0x452 JUMPI PUSH0 PUSH0 REVERT JUMPDEST POP JUMP JUMPDEST PUSH0 DUP2 CALLDATALOAD SWAP1 POP PUSH2 0x463 DUP2 PUSH2 0x43F JUMP JUMPDEST SWAP3 SWAP2 POP POP JUMP JUMPDEST PUSH0 PUSH1 0x20 DUP3 DUP5 SUB SLT ISZERO PUSH2 0x47E JUMPI PUSH2 0x47D PUSH2 0x3AD JUMP JUMPDEST JUMPDEST PUSH0 PUSH2 0x48B DUP5 DUP3 DUP6 ADD PUSH2 0x455 JUMP JUMPDEST SWAP2 POP POP SWAP3 SWAP2 POP POP JUMP JUMPDEST PUSH2 0x49D DUP2 PUSH2 0x3B1 JUMP JUMPDEST DUP3 MSTORE POP POP JUMP JUMPDEST PUSH0 PUSH1 0x20 DUP3 ADD SWAP1 POP PUSH2 0x4B6 PUSH0 DUP4 ADD DUP5 PUSH2 0x494 JUMP JUMPDEST SWAP3 SWAP2 POP POP JUMP JUMPDEST PUSH0 DUP3 DUP3 MSTORE PUSH1 0x20 DUP3 ADD SWAP1 POP SWAP3 SWAP2 POP POP JUMP JUMPDEST PUSH32 0x496E73756666696369656E742062616C616E6365000000000000000000000000 PUSH0 DUP3 ADD MSTORE POP JUMP JUMPDEST PUSH0 PUSH2 0x500 PUSH1 0x14 DUP4 PUSH2 0x4BC JUMP JUMPDEST SWAP2 POP PUSH2 0x50B DUP3 PUSH2 0x4CC JUMP JUMPDEST PUSH1 0x20 DUP3 ADD SWAP1 POP SWAP2 SWAP1 POP JUMP JUMPDEST PUSH0 PUSH1 0x20 DUP3 ADD SWAP1 POP DUP2 DUP2 SUB PUSH0 DUP4 ADD MSTORE PUSH2 0x52D DUP2 PUSH2 0x4F4 JUMP JUMPDEST SWAP1 POP SWAP2 SWAP1 POP JUMP JUMPDEST PUSH32 0x4E487B7100000000000000000000000000000000000000000000000000000000 PUSH0 MSTORE PUSH1 0x11 PUSH1 0x4 MSTORE PUSH1 0x24 PUSH0 REVERT JUMPDEST PUSH0 PUSH2 0x56B DUP3 PUSH2 0x3B1 JUMP JUMPDEST SWAP2 POP PUSH2 0x576 DUP4 PUSH2 0x3B1 JUMP JUMPDEST SWAP3 POP DUP3 DUP3 SUB SWAP1 POP DUP2 DUP2 GT ISZERO PUSH2 0x58E JUMPI PUSH2 0x58D PUSH2 0x534 JUMP JUMPDEST JUMPDEST SWAP3 SWAP2 POP POP JUMP JUMPDEST PUSH32 0x4465706F736974206D7573742062652067726561746572207468616E20300000 PUSH0 DUP3 ADD MSTORE POP JUMP JUMPDEST PUSH0 PUSH2 0x5C8 PUSH1 0x1E DUP4 PUSH2 0x4BC JUMP JUMPDEST SWAP2 POP PUSH2 0x5D3 DUP3 PUSH2 0x594 JUMP JUMPDEST PUSH1 0x20 DUP3 ADD SWAP1 POP SWAP2 SWAP1 POP JUMP JUMPDEST PUSH0 PUSH1 0x20 DUP3 ADD SWAP1 POP DUP2 DUP2 SUB PUSH0 DUP4 ADD MSTORE PUSH2 0x5F5 DUP2 PUSH2 0x5BC JUMP JUMPDEST SWAP1 POP SWAP2 SWAP1 POP JUMP JUMPDEST PUSH0 PUSH2 0x606 DUP3 PUSH2 0x3B1 JUMP JUMPDEST SWAP2 POP PUSH2 0x611 DUP4 PUSH2 0x3B1 JUMP JUMPDEST SWAP3 POP DUP3 DUP3 ADD SWAP1 POP DUP1 DUP3 GT ISZERO PUSH2 0x629 JUMPI PUSH2 0x628 PUSH2 0x534 JUMP JUMPDEST JUMPDEST SWAP3 SWAP2 POP POP JUMP JUMPDEST PUSH32 0x4E6F7420617574686F72697A6564000000000000000000000000000000000000 PUSH0 DUP3 ADD MSTORE POP JUMP JUMPDEST PUSH0 PUSH2 0x663 PUSH1 0xE DUP4 PUSH2 0x4BC JUMP JUMPDEST SWAP2 POP PUSH2 0x66E DUP3 PUSH2 0x62F JUMP JUMPDEST PUSH1 0x20 DUP3 ADD SWAP1 POP SWAP2 SWAP1 POP JUMP JUMPDEST PUSH0 PUSH1 0x20 DUP3 ADD SWAP1 POP DUP2 DUP2 SUB PUSH0 DUP4 ADD MSTORE PUSH2 0x690 DUP2 PUSH2 0x657 JUMP JUMPDEST SWAP1 POP SWAP2 SWAP1 POP JUMP INVALID LOG2 PUSH5 0x6970667358 0x22 SLT KECCAK256 0xC3 SWAPN 0x2B 0xD9 EXTCODESIZE 0xC RETURNDATASIZE PUSH31 0xFEF24FDCB2D552DA37878ACA267E743091E7EE99F36E445F64736F6C634300 ADDMOD 0x1E STOP CALLER "
				},
				"gasEstimates": {
					"creation": {
						"codeDepositCost": "348200",
						"executionCost": "infinite",
						"totalCost": "infinite"
					},
					"external": {
						"deposit()": "infinite",
						"emergencyWithdraw()": "infinite",
						"getBalance(address)": "2872",
						"withdraw(uint256)": "infinite"
					}
				},
				"methodIdentifiers": {
					"deposit()": "d0e30db0",
					"emergencyWithdraw()": "db2e21bc",
					"getBalance(address)": "f8b2cb4f",
					"withdraw(uint256)": "2e1a7d4d"
				}
			},
			"storageLayout": {
				"storage": [
					{
						"astId": 5,
						"contract": "soliditymeliproject/contracts/vaultori.sol:Vault",
						"label": "balances",
						"offset": 0,
						"slot": "0",
						"type": "t_mapping(t_address,t_uint256)"
					}
				],
				"types": {
					"t_address": {
						"encoding": "inplace",
						"label": "address",
						"numberOfBytes": "20"
					},
					"t_mapping(t_address,t_uint256)": {
						"encoding": "mapping",
						"key": "t_address",
						"label": "mapping(address => uint256)",
						"numberOfBytes": "32",
						"value": "t_uint256"
					},
					"t_uint256": {
						"encoding": "inplace",
						"label": "uint256",
						"numberOfBytes": "32"
					}
				}
			},
			"userdoc": {
				"kind": "user",
				"methods": {},
				"version": 1
			}
		}
	}
}